{
  "contractName": "Fundraiser",
  "abi": [
    {
      "constant": true,
      "inputs": [],
      "name": "weiPerBtc",
      "outputs": [
        {
          "name": "",
          "type": "uint256"
        }
      ],
      "payable": false,
      "stateMutability": "view",
      "type": "function"
    },
    {
      "constant": false,
      "inputs": [
        {
          "name": "_donor",
          "type": "address"
        },
        {
          "name": "_returnAddress",
          "type": "address"
        },
        {
          "name": "checksum",
          "type": "bytes4"
        }
      ],
      "name": "donate",
      "outputs": [],
      "payable": true,
      "stateMutability": "payable",
      "type": "function"
    },
    {
      "constant": true,
      "inputs": [],
      "name": "isActive",
      "outputs": [
        {
          "name": "active",
          "type": "bool"
        }
      ],
      "payable": false,
      "stateMutability": "view",
      "type": "function"
    },
    {
      "constant": true,
      "inputs": [],
      "name": "totalETM",
      "outputs": [
        {
          "name": "",
          "type": "uint256"
        }
      ],
      "payable": false,
      "stateMutability": "view",
      "type": "function"
    },
    {
      "constant": false,
      "inputs": [],
      "name": "kill",
      "outputs": [],
      "payable": false,
      "stateMutability": "nonpayable",
      "type": "function"
    },
    {
      "constant": true,
      "inputs": [
        {
          "name": "",
          "type": "address"
        }
      ],
      "name": "records",
      "outputs": [
        {
          "name": "",
          "type": "uint256"
        }
      ],
      "payable": false,
      "stateMutability": "view",
      "type": "function"
    },
    {
      "constant": false,
      "inputs": [
        {
          "name": "newRate",
          "type": "uint256"
        }
      ],
      "name": "adjustRate",
      "outputs": [],
      "payable": false,
      "stateMutability": "nonpayable",
      "type": "function"
    },
    {
      "constant": true,
      "inputs": [],
      "name": "numDonations",
      "outputs": [
        {
          "name": "",
          "type": "uint256"
        }
      ],
      "payable": false,
      "stateMutability": "view",
      "type": "function"
    },
    {
      "constant": false,
      "inputs": [],
      "name": "halt",
      "outputs": [],
      "payable": false,
      "stateMutability": "nonpayable",
      "type": "function"
    },
    {
      "constant": true,
      "inputs": [],
      "name": "treasury",
      "outputs": [
        {
          "name": "",
          "type": "address"
        }
      ],
      "payable": false,
      "stateMutability": "view",
      "type": "function"
    },
    {
      "constant": true,
      "inputs": [],
      "name": "totalWei",
      "outputs": [
        {
          "name": "",
          "type": "uint256"
        }
      ],
      "payable": false,
      "stateMutability": "view",
      "type": "function"
    },
    {
      "constant": true,
      "inputs": [],
      "name": "isHalted",
      "outputs": [
        {
          "name": "",
          "type": "bool"
        }
      ],
      "payable": false,
      "stateMutability": "view",
      "type": "function"
    },
    {
      "constant": false,
      "inputs": [],
      "name": "unhalt",
      "outputs": [],
      "payable": false,
      "stateMutability": "nonpayable",
      "type": "function"
    },
    {
      "constant": true,
      "inputs": [],
      "name": "EtmPerBtc",
      "outputs": [
        {
          "name": "",
          "type": "uint256"
        }
      ],
      "payable": false,
      "stateMutability": "view",
      "type": "function"
    },
    {
      "constant": true,
      "inputs": [],
      "name": "admin",
      "outputs": [
        {
          "name": "",
          "type": "address"
        }
      ],
      "payable": false,
      "stateMutability": "view",
      "type": "function"
    },
    {
      "constant": true,
      "inputs": [],
      "name": "dust",
      "outputs": [
        {
          "name": "",
          "type": "uint256"
        }
      ],
      "payable": false,
      "stateMutability": "view",
      "type": "function"
    },
    {
      "inputs": [
        {
          "name": "_admin",
          "type": "address"
        },
        {
          "name": "_treasury",
          "type": "address"
        },
        {
          "name": "_weiPerBtc",
          "type": "uint256"
        },
        {
          "name": "_EtmPerBtc",
          "type": "uint256"
        }
      ],
      "payable": false,
      "stateMutability": "nonpayable",
      "type": "constructor"
    },
    {
      "anonymous": false,
      "inputs": [
        {
          "indexed": true,
          "name": "recipient",
          "type": "address"
        },
        {
          "indexed": false,
          "name": "returnAddr",
          "type": "address"
        },
        {
          "indexed": false,
          "name": "weiAmount",
          "type": "uint256"
        },
        {
          "indexed": false,
          "name": "currentRate",
          "type": "uint256"
        }
      ],
      "name": "Received",
      "type": "event"
    },
    {
      "anonymous": false,
      "inputs": [],
      "name": "Halted",
      "type": "event"
    },
    {
      "anonymous": false,
      "inputs": [],
      "name": "Unhalted",
      "type": "event"
    },
    {
      "anonymous": false,
      "inputs": [
        {
          "indexed": false,
          "name": "newRate",
          "type": "uint256"
        }
      ],
      "name": "RateChanged",
      "type": "event"
    }
  ],
  "bytecode": "0x60606040526000600460006101000a81548160ff021916908315150217905550600060065560006007556000600855341561003957600080fd5b604051608080610be28339810160405280805190602001909190805190602001909190805190602001909190805190602001909190505060008211151561007f57600080fd5b60008111151561008e57600080fd5b836000806101000a81548173ffffffffffffffffffffffffffffffffffffffff021916908373ffffffffffffffffffffffffffffffffffffffff16021790555082600160006101000a81548173ffffffffffffffffffffffffffffffffffffffff021916908373ffffffffffffffffffffffffffffffffffffffff160217905550816002819055508060038190555050505050610ab2806101306000396000f3006060604052600436106100e6576000357c0100000000000000000000000000000000000000000000000000000000900463ffffffff16806309990611146100eb5780631c9981f81461011457806322f3e2d4146101895780632334623f146101b657806341c0e1b5146101df578063469e9067146101f457806355b726bc146102415780635e9a1849146102645780635ed7ca5b1461028d57806361d027b3146102a25780636d98e9fc146102f7578063c7ff158414610320578063cb3e64fd1461034d578063db3c1b9414610362578063f851a4401461038b578063fad9aba3146103e0575b600080fd5b34156100f657600080fd5b6100fe610409565b6040518082815260200191505060405180910390f35b610187600480803573ffffffffffffffffffffffffffffffffffffffff1690602001909190803573ffffffffffffffffffffffffffffffffffffffff169060200190919080357bffffffffffffffffffffffffffffffffffffffffffffffffffffffff191690602001909190505061040f565b005b341561019457600080fd5b61019c6106ea565b604051808215151515815260200191505060405180910390f35b34156101c157600080fd5b6101c9610702565b6040518082815260200191505060405180910390f35b34156101ea57600080fd5b6101f2610708565b005b34156101ff57600080fd5b61022b600480803573ffffffffffffffffffffffffffffffffffffffff1690602001909190505061079e565b6040518082815260200191505060405180910390f35b341561024c57600080fd5b61026260048080359060200190919050506107b6565b005b341561026f57600080fd5b610277610852565b6040518082815260200191505060405180910390f35b341561029857600080fd5b6102a0610858565b005b34156102ad57600080fd5b6102b5610918565b604051808273ffffffffffffffffffffffffffffffffffffffff1673ffffffffffffffffffffffffffffffffffffffff16815260200191505060405180910390f35b341561030257600080fd5b61030a61093e565b6040518082815260200191505060405180910390f35b341561032b57600080fd5b610333610944565b604051808215151515815260200191505060405180910390f35b341561035857600080fd5b610360610957565b005b341561036d57600080fd5b610375610a16565b6040518082815260200191505060405180910390f35b341561039657600080fd5b61039e610a1c565b604051808273ffffffffffffffffffffffffffffffffffffffff1673ffffffffffffffffffffffffffffffffffffffff16815260200191505060405180910390f35b34156103eb57600080fd5b6103f3610a41565b6040518082815260200191505060405180910390f35b60025481565b600080600460009054906101000a900460ff1615151561042e57600080fd5b67016345785d8a0000341015151561044557600080fd5b827bffffffffffffffffffffffffffffffffffffffffffffffffffffffff19168473ffffffffffffffffffffffffffffffffffffffff166001028673ffffffffffffffffffffffffffffffffffffffff166001021860405180826000191660001916815260200191505060405180910390207bffffffffffffffffffffffffffffffffffffffffffffffffffffffff19161415156104e257600080fd5b600160009054906101000a900473ffffffffffffffffffffffffffffffffffffffff1673ffffffffffffffffffffffffffffffffffffffff166108fc349081150290604051600060405180830381858888f19350505050151561054457600080fd5b61055b600354600254610a4d90919063ffffffff16565b91506105708234610a4d90919063ffffffff16565b90506105c481600560008873ffffffffffffffffffffffffffffffffffffffff1673ffffffffffffffffffffffffffffffffffffffff16815260200190815260200160002054610a6890919063ffffffff16565b600560008773ffffffffffffffffffffffffffffffffffffffff1673ffffffffffffffffffffffffffffffffffffffff1681526020019081526020016000208190555061061c34600654610a6890919063ffffffff16565b60068190555061063781600754610a6890919063ffffffff16565b6007819055506106536001600854610a6890919063ffffffff16565b6008819055508473ffffffffffffffffffffffffffffffffffffffff167f14432f6e1dc0e8c1f4c0d81c69cecc80c0bea817a74482492b0211392478ab9b853485604051808473ffffffffffffffffffffffffffffffffffffffff1673ffffffffffffffffffffffffffffffffffffffff168152602001838152602001828152602001935050505060405180910390a25050505050565b6000600460009054906101000a900460ff1615905090565b60075481565b6000809054906101000a900473ffffffffffffffffffffffffffffffffffffffff1673ffffffffffffffffffffffffffffffffffffffff163373ffffffffffffffffffffffffffffffffffffffff1614151561076357600080fd5b600160009054906101000a900473ffffffffffffffffffffffffffffffffffffffff1673ffffffffffffffffffffffffffffffffffffffff16ff5b60056020528060005260406000206000915090505481565b6000809054906101000a900473ffffffffffffffffffffffffffffffffffffffff1673ffffffffffffffffffffffffffffffffffffffff163373ffffffffffffffffffffffffffffffffffffffff1614151561081157600080fd5b806002819055507f595a30f13a69b616c4d568e2a2b7875fdfe86e4300a049953c76ee278f8f3f10816040518082815260200191505060405180910390a150565b60085481565b6000809054906101000a900473ffffffffffffffffffffffffffffffffffffffff1673ffffffffffffffffffffffffffffffffffffffff163373ffffffffffffffffffffffffffffffffffffffff161415156108b357600080fd5b600460009054906101000a900460ff161515156108cf57600080fd5b6001600460006101000a81548160ff0219169083151502179055507f1ee9080f6b55ca44ce58681c8162e6c1ac1c47e1da791a4a1c1ec6186d8af1f360405160405180910390a1565b600160009054906101000a900473ffffffffffffffffffffffffffffffffffffffff1681565b60065481565b600460009054906101000a900460ff1681565b6000809054906101000a900473ffffffffffffffffffffffffffffffffffffffff1673ffffffffffffffffffffffffffffffffffffffff163373ffffffffffffffffffffffffffffffffffffffff161415156109b257600080fd5b600460009054906101000a900460ff1615156109cd57600080fd5b6000600460006101000a81548160ff0219169083151502179055507f7c46a5e7a10434913e987d799d659758880ce8e790692e13e66ddfae4cc9afca60405160405180910390a1565b60035481565b6000809054906101000a900473ffffffffffffffffffffffffffffffffffffffff1681565b67016345785d8a000081565b6000808284811515610a5b57fe5b0490508091505092915050565b6000808284019050838110151515610a7c57fe5b80915050929150505600a165627a7a723058203d186efe154f14297fb7656938866f49d7573a659cd0b4ba0d4cafb9b8a09a430029",
  "source": "//! Fundraiser contract. Just records who sent what.\n//! By Parity Technologies, 2017.\n//! Released under the Apache Licence 2.\n//! Modified by the Musereum.\n\npragma solidity ^0.4.11;\n\nimport \"zeppelin-solidity/contracts/math/SafeMath.sol\";\n\n/// Will accept Ether \"contributions\" and records each both as a log and in a\n/// queryable records.\ncontract Fundraiser {\n    using SafeMath for uint;\n\n    // How much is enough?\n    uint public constant dust = 100 finney;\n\n    // Special addresses:\n    //  administrator can halt/unhalt/kill/adjustRate;\n    //  treasury receives all the funds\n    address public admin;\n    address public treasury;\n\n    // Begin and end block for the fundraising period\n    //uint public beginBlock;\n    //uint public endBlock;\n\n    // Number of wei per btc\n    uint public weiPerBtc;\n\n    // Default number of etm per btc\n    uint public EtmPerBtc;\n\n    // Are contributions abnormally halted?\n    bool public isHalted = false;\n\n    // The `records` mapping maps musereum addresses to the amount of ETM.\n    mapping (address => uint) public records;\n\n    // The total amount of ether raised\n    uint public totalWei = 0;\n    // The total amount of ETM suggested for allocation\n    uint public totalETM = 0;\n    // The number of donation\n    uint public numDonations = 0;\n\n    /// Constructor. `_admin` has the ability to pause the\n    /// contribution period and, eventually, kill this contract. `_treasury`\n    /// receives all funds. `_beginBlock` and `_endBlock` define the begin and\n    /// end of the period. `_weiPerBtc` is the ratio of ETM to ether.\n    function Fundraiser(\n        address _admin,\n        address _treasury,\n        //uint _beginBlock,\n        //uint _endBlock,\n        uint _weiPerBtc,\n        uint _EtmPerBtc\n    ) {\n        require(_weiPerBtc > 0);\n        require(_EtmPerBtc > 0);\n\n        admin = _admin;\n        treasury = _treasury;\n        //beginBlock = _beginBlock;\n        //endBlock = _endBlock;\n\n        weiPerBtc = _weiPerBtc;\n        EtmPerBtc = _EtmPerBtc;\n    }\n\n    // Can only be called by admin.\n    modifier only_admin { require(msg.sender == admin); _; }\n    // Can only be called by prior to the period.\n    //modifier only_before_period { require(block.number < beginBlock); _; }\n    // Can only be called during the period when not halted.\n    modifier only_during_period { require(/*block.number >= beginBlock || block.number < endBlock && */!isHalted); _; }\n    // Can only be called during the period when halted.\n    modifier only_during_halted_period { require(/*block.number >= beginBlock || block.number < endBlock && */isHalted); _; }\n    // Can only be called after the period.\n    //modifier only_after_period { require(block.number >= endBlock); _; }\n    // The value of the message must be sufficiently large to not be considered dust.\n    modifier is_not_dust { require(msg.value >= dust); _; }\n\n    /// Some contribution `amount` received from `recipient` at rate of `currentRate` with emergency return of `returnAddr`.\n    event Received(address indexed recipient, address returnAddr, uint weiAmount, uint currentRate);\n    /// Period halted abnormally.\n    event Halted();\n    /// Period restarted after abnormal halt.\n    event Unhalted();\n    event RateChanged(uint newRate);\n\n    // Is the fundraiser active?\n    function isActive() public constant returns (bool active) {\n        return (/*block.number >= beginBlock && block.number < endBlock && */ !isHalted);\n    }\n\n    /// Receive a contribution for a donor musereum address.\n    function donate(address _donor, address _returnAddress, bytes4 checksum) public payable only_during_period is_not_dust {\n        // checksum is the first 4 bytes of the sha3 of the xor of the bytes32 versions of the musereum address and the return address\n        require( bytes4(sha3( bytes32(_donor)^bytes32(_returnAddress) )) == checksum );\n\n        // forward the funds to the treasure\n        require( treasury.send(msg.value) );\n\n        // calculate the number of ETM at the current rate\n        uint weiPerETM = weiPerBtc.div(EtmPerBtc);\n        uint ETM = msg.value.div(weiPerETM);\n\n        // update the donor details\n        records[_donor] = records[_donor].add(ETM);\n\n        // update the totals\n        totalWei = totalWei.add(msg.value);\n        totalETM = totalETM.add(ETM);\n        numDonations = numDonations.add(1);\n\n        Received(_donor, _returnAddress, msg.value, weiPerETM);\n    }\n\n    /// Adjust the weiPerBtc rate\n    function adjustRate(uint newRate) public only_admin {\n        weiPerBtc = newRate;\n        RateChanged(newRate);\n    }\n\n    /// Halt the contribution period. Any attempt at contributing will fail.\n    function halt() public only_admin only_during_period {\n        isHalted = true;\n        Halted();\n    }\n\n    /// Unhalt the contribution period.\n    function unhalt() public only_admin only_during_halted_period {\n        isHalted = false;\n        Unhalted();\n    }\n\n    /// Kill this contract.\n    function kill() public only_admin /*only_after_period*/ {\n        suicide(treasury);\n    }\n}\n",
  "sourcePath": "/Users/aler/crypto/musereum/musereum-fundraiser-contracts/contracts/Fundraiser.sol",
  "compiler": {
    "name": "solc",
    "version": "0.4.18+commit.9cf6e910.Emscripten.clang"
  },
  "schemaVersion": "1.0.1",
  "updatedAt": "2017-12-14T10:45:37.944Z"
}